:100000000C9446000C9465000C9465000C946500FB
:100010000C9465000C9465000C9465000C946500CC
:100020000C9465000C9465000C9465000C943704E6
:100030000C9465000C9465000C9465000C946500AC
:100040000C9465000C9465000C9465000C9465009C
:100050000C9465000C9465000C9465000C9465008C
:100060000C9465000C9465000C9465000C9465007C
:100070000C9465000C9465000C9465000C9465006C
:100080000C9465000C9465000C94650011241FBE4F
:10009000CFEFD0E4DEBFCDBF11E0A0E0B1E0E4E9F6
:1000A000F2E100E00BBF02C007900D92A835B10746
:1000B000D9F721E0A8E5B1E001C01D92A338B2074D
:1000C000E1F70E9467000C9448090C940000CF935C
:1000D000DF93CDB7DEB763970FB6F894DEBF0FBEE0
:1000E000CDBF0E94FE030E946A0288E091E00E9458
:1000F000810288EE93E00E947F041C861D861E8686
:100100001F86188A198A1A8A1B8A512C712C812CF5
:10011000912C5401612C412C8E010F5F1F4F0E94C6
:10012000B9046B017C0184E20E942C0485FB33241A
:1001300030F882FB222420F882FF38C08889998910
:10014000AA89BB898C509E4FAF4FBF4F8C159D0520
:10015000AE05BF0508F099C08BB192E089278BB935
:10016000519A61E080E00E94A402442039F064E1E9
:1001700071E0C8010E941A06412C07C06EE171E0CF
:10018000C8010E941A06442443941F930F93A8E2C7
:10019000B1E0BF93AF930E946C060F900F900F9049
:1001A0000F90C88AD98AEA8AFB8A6FC0332009F483
:1001B00040C08C859D85AE85BF858C509E4FAF4FCE
:1001C000BF4F8C159D05AE05BF0548F588B190E180
:1001D000892788B93C9A60E080E00E94A4026620EA
:1001E00039F06DE271E0C8010E941A06612C07C067
:1001F00069E371E0C8010E941A06662463941F93A4
:100200000F93A5E4B1E0BF93AF930E946C060F90EB
:100210000F900F900F90CC86DD86EE86FF86211022
:1002200008C061E080E00E94A4028BE491E00E949B
:100230008102D501C40186509F4FAF4FBF4F8C152F
:100240009D05AE05BF0508F06ACF211068CF3110BB
:1002500066CF0E946A02652D872D0E94A4028EE25D
:1002600090E00E947E069FE0791208C081E0511064
:1002700080E0582E46015701712C51CFAEE0A715F2
:10028000C8F37394460157014ACF311092CF60E012
:10029000C9CF80E090E0089581E090E06F9364E042
:1002A0006A95F1F76F910197C9F708950F931F931E
:1002B000CF93DF9317B13D982898299AC0E0D0E0FA
:1002C0000E944C012A9A0E944C0106B12A980E9471
:1002D0004C012A9A0E944C012A98249605FF10C0CE
:1002E0009E0140E050E080915C0190915D01A09101
:1002F0005E01B0915F01281739074A075B0700F3D9
:100300009E0140E050E080915C0190915D01A091E0
:100310005E01B0915F01281739074A075B0728F093
:1003200082E390E0A0E0B0E004C080E395E7A0E0C5
:10033000B0E080935C0190935D01A0935E01B09367
:100340005F0117B9DF91CF911F910F91089528B1E7
:1003500090E08F709070880F991F880F991F237CF1
:10036000282B28B92A9A0E944C012A980E944C01F5
:100370000895A2E0B0E0EFEBF1E00C94C904182F6F
:100380004A8369830E9434020E945601F7B008B183
:10039000299869814A81662311F0289A01C028981A
:1003A00087B18C6387B9413029F0812F82958F7096
:1003B0000E94A701812F8F700E94A701F7B808B98A
:1003C0002296E5E00C94E50460E042E00E94B90169
:1003D000089561E042E00E94B901089560E041E0C3
:1003E0000E94B90108953D98459A80E395E7A0E001
:1003F000B0E080935C0190935D01A0935E01B093A7
:100400005F01209A219A229A8EE190E00E947F0457
:1004100083E00E94EE0186E090E00E947F0483E08A
:100420000E94EE0182E090E00E947F0483E00E943F
:10043000EE0182E090E00E947F0482E00E94EE01E3
:1004400082E090E00E947F0488E20E94E40188E05C
:100450000E94E40181E00E94E40186E00E94E40140
:100460008CE00E94E401089580916001882329F4C2
:1004700081E0809360010E94F301089581E00E9471
:10048000E4018091580190915901009711F1A0E089
:10049000B0E208C0E0915801F0915901E20FF31F5A
:1004A000B083AF5F2A2F30E08091000190E0019788
:1004B0006091010170E0869FA001879F500D969F7B
:1004C000500D1124241735072CF310925B01109264
:1004D0005A0108950E943E020895EF92FF92CF9331
:1004E000DF93E82EE7017E01F92EE70102C00E94AA
:1004F000E90189918823D9F7DF91CF91FF90EF909F
:1005000008950E946D020895A5E0B0E0EAE8F2E0E7
:100510000C94CB04182F80E8898380EC8A8384E9CB
:100520008B8384ED8C83FE01E60FF11D8181810FA9
:100530006D830E94E40110935B016D8160935A0109
:100540002596E3E00C94E7040E9484020895A0E05D
:10055000B0E0EDEAF2E00C94C604D82E8091580188
:1005600090915901009709F4FAC02D2D2A3009F411
:1005700043C02830C9F480915B01815080935B01B6
:100580008F3F51F480915A01815080935A0180919C
:100590000101815080935B0180915A018F3F09F0E6
:1005A000D8C010925A01D3C08D2D0E94E9018091CC
:1005B0005A018823B9F090E001974091010150E081
:1005C000849F9001859F300D949F300D1124809160
:1005D0005B01E0915801F0915901E20FF31FE80F20
:1005E000F11DD08280915B018F5F80935B019091C0
:1005F0000101891709F0B3C040915A01242F30E05E
:100600008091000190E001972817390709F09CC0FC
:10061000C0E0D0E041C080E06C2F0E948402CC2476
:100620008E010F5F1F4F33C0EC2CFF2430E0C29FC0
:10063000C001C39F900DD29F900D1124E0915801ED
:10064000F0915901EE0DFF1DE80FF91F80810E9406
:10065000E90180915801909159012091010130E008
:10066000C29FF001C39FF00DD29FF00D11248E0D9B
:100670009F1DE80FF91F029FD001039FB00D129F2D
:10068000B00D1124A80FB91F8C918083C3942091C1
:100690000101C21648F2E80160910001862F90E046
:1006A0000297C817D9070CF4B6CF6230E0F1625058
:1006B00080E00E94840200E010E231C0C02FD0E050
:1006C0008091000190E0029750E0849F9001859F07
:1006D000300D949F300D1124E0915801F091590193
:1006E000EC0FFD1FE20FF31F80810E94E901809152
:1006F000000190E002974091010150E0849F900139
:10070000859F300D949F300D1124E0915801F09198
:100710005901EC0FFD1FE20FF31F10830F5F409193
:100720000101041758F260910001615080E00E94BD
:10073000840210E004C080E20E94E9011F5F809102
:1007400001011817C0F303C04F5F40935A01109284
:100750005B0180915B0160915A010E9484022D2D02
:10076000332727FD3095C901CDB7DEB7E8E00C94FB
:10077000E2048091580190915901009711F00E9474
:100780008B052091000130E0215030408091010123
:1007900090E0AC01249FC001259F900D349F900DE7
:1007A00011240E94F30490935901809358010097FB
:1007B00021F1A0E0B0E208C0E0915801F0915901A8
:1007C000E20FF31FB083AF5F2A2F30E0809100016A
:1007D00090E001976091010170E0869FA001879FE2
:1007E000500D969F500D1124241735072CF387EADE
:1007F00092E069E471E00E94210608950E94B90325
:10080000089587B1837D87B988B18C6288B985E006
:1008100090E06F9364E06A95F1F76F910197C9F7E3
:10082000089580916101882329F481E0809361011A
:100830000E9401040895A1E0B0E0E1E2F4E00C942C
:10084000CC0489830E94110496B1909589818923F3
:100850002196E2E00C94E8040E941B0408956F9333
:1008600064E06A95F1F76F910197C9F708952F92A7
:100870008F939F932FB680916F0190917001019695
:1008800080936F019093700190E080917101891FB6
:1008900080937101909177019C5F90937701809193
:1008A000760180519742C0F0909377018093760152
:1008B00080917201909173010196809372019093DF
:1008C000730190E080917401891F8093740180917D
:1008D0007501891F809375012FBE9F918F912F9075
:1008E0001895CF93DF93EC0105C088EE93E00E944A
:1008F0002F0421972097C9F7DF91CF9108950E9487
:1009000071040895E0E7F0E080818E7F8083A0EBA2
:10091000B0E08C9183608C93A1EBB0E08C91807FF0
:100920008C938C9182608C93B89A80818160808353
:100930007894089580917801882329F481E0809348
:1009400078010E94820408950E949A04E0E7F0E092
:1009500080818E7F8083209172013091730140915C
:10096000740150917501808181608083B901CA0151
:1009700008950E94A40408952F923F924F925F928F
:100980006F927F928F929F92AF92BF92CF92DF929F
:10099000EF92FF920F931F93CF93DF93CDB7DEB704
:1009A000CA1BDB0B0FB6F894DEBF0FBECDBF099498
:1009B0002A88398848885F846E847D848C849B84EF
:1009C000AA84B984C884DF80EE80FD800C811B81FD
:1009D000AA81B981CE0FD11D0FB6F894DEBF0FBE2C
:1009E000CDBFED010895CF93DF938230910510F4D0
:1009F00082E090E0E0917B01F0917C0120E030E02A
:100A0000A0E0B0E0309739F1408151814817590793
:100A1000B8F04817590771F482819381109729F033
:100A200013969C938E9312972CC090937C01809385
:100A30007B0127C02115310531F04217530718F00B
:100A4000A901DB0101C0EF019A01BD01DF010280B4
:100A5000F381E02DD7CF21153105F9F0281B390B93
:100A60002430310580F48A819B816115710521F064
:100A7000FB019383828304C090937C0180937B016C
:100A8000FE01329644C0FE01E20FF31F8193919361
:100A900022503109398328833AC02091790130915D
:100AA0007A01232B41F42091040130910501309308
:100AB0007A012093790120910201309103012115DF
:100AC000310541F42DB73EB7409106015091070121
:100AD000241B350BE0917901F0917A01E217F307BD
:100AE000A0F42E1B3F0B2817390778F0AC014E5F9E
:100AF0005F4F2417350748F04E0F5F1F50937A0160
:100B0000409379018193919302C0E0E0F0E0CF013E
:100B1000DF91CF910895CF93DF93009709F487C0B9
:100B2000FC01329713821282C0917B01D0917C012B
:100B3000209781F420813181280F391F809179011C
:100B400090917A018217930779F5F0937A01E093F7
:100B500079016DC0DE0120E030E0AE17BF0750F430
:100B600012964D915C9113979D014115510509F124
:100B7000DA01F3CFB383A28340815181840F951FA3
:100B80008A179B0771F48D919C911197840F951F83
:100B900002969183808312968D919C9113979383F3
:100BA00082832115310529F4F0937C01E0937B01C8
:100BB0003EC0D9011396FC93EE9312974D915D912F
:100BC000A40FB51FEA17FB0779F480819181840F88
:100BD000951F0296D90111969C938E9382819381E1
:100BE00013969C938E931297E0E0F0E08A819B81AC
:100BF000009719F0FE01EC01F9CFCE010296288191
:100C00003981820F931F2091790130917A01281741
:100C1000390769F4309729F410927C0110927B0116
:100C200002C013821282D0937A01C0937901DF91BE
:100C3000CF910895FB01DC0101900D920020E1F7B6
:100C400008950F931F93CF93DF93EC018B010097CF
:100C500031F46115710519F480E090E038C06EE060
:100C600070E081E090E00E947F08FC010097A1F312
:100C700080E883830115110571F01387028781E8ED
:100C8000838380917D0190917E01892B21F4F093E3
:100C90007E01E0937D012097C9F0D187C0878381D1
:100CA0008260838380917F0190918001892B71F410
:100CB000F0938001E0937F01809181019091820106
:100CC000892B21F4F0938201E0938101CF01DF9120
:100CD000CF911F910F910895CF93DF93CDB7DEB7DA
:100CE000FE01359661917191AF0180917F019091E4
:100CF00080010E948406DF91CF91089560917F0169
:100D0000709180010C94B8082F923F924F925F929D
:100D10006F927F928F929F92AF92BF92CF92DF920B
:100D2000EF92FF920F931F93CF93DF93CDB7DEB770
:100D30002C970FB6F894DEBF0FBECDBF7C016B01C0
:100D40008A01FC0117821682838181FFBDC1CE0119
:100D500001964C01F7019381F60193FD859193FF74
:100D600081916F01882309F4ABC1853239F493FD79
:100D7000859193FF81916F01853229F4B70190E04D
:100D80000E94B808E7CF512C312C20E02032A0F48B
:100D90008B3269F030F4803259F0833269F420618B
:100DA0002CC08D3239F0803339F4216026C02260A6
:100DB000246023C0286021C027FD27C030ED380FF4
:100DC0003A3078F426FF06C0FAE05F9E300D112419
:100DD000532E13C08AE0389E300D1124332E20622A
:100DE0000CC08E3221F426FD6BC1206406C08C3607
:100DF00011F4206802C0883641F4F60193FD859114
:100E000093FF81916F018111C1CF982F9F7D9554E0
:100E1000933028F40C5F1F4FFFE3F9830DC0833636
:100E200031F0833771F0833509F05BC022C0F801DF
:100E3000808189830E5F1F4F44244394512C5401B9
:100E400015C03801F2E06F0E711CF801A080B1806E
:100E500026FF03C0652D70E002C06FEF7FEFC50174
:100E60002C870E94AD082C0183012C852F77222E20
:100E700017C03801F2E06F0E711CF801A080B1803C
:100E800026FF03C0652D70E002C06FEF7FEFC50144
:100E90002C870E949B082C012C852068222E830120
:100EA00023FC1BC0832D90E048165906B0F4B7010F
:100EB00080E290E00E94B8083A94F4CFF50127FC54
:100EC000859127FE81915F01B70190E00E94B808EB
:100ED00031103A94F1E04F1A51084114510471F75E
:100EE000E5C0843611F0893639F5F80127FF07C0CF
:100EF00060817181828193810C5F1F4F08C0608186
:100F00007181882777FD8095982F0E5F1F4F2F7670
:100F1000B22E97FF09C090958095709561957F4F8F
:100F20008F4F9F4F2068B22E2AE030E0A4010E942C
:100F3000EA08A82EA81844C0853729F42F7EB22EBF
:100F40002AE030E025C0F22FF97FBF2E8F36C1F0A6
:100F500018F4883579F0B4C0803719F0883721F05B
:100F6000AFC02F2F2061B22EB4FE0DC08B2D846038
:100F7000B82E09C024FF0AC09F2F9660B92E06C064
:100F800028E030E005C020E130E002C020E132E09E
:100F9000F801B7FE07C060817181828193810C5F87
:100FA0001F4F06C06081718180E090E00E5F1F4F8F
:100FB000A4010E94EA08A82EA818FB2DFF77BF2ED7
:100FC000B6FE0BC02B2D2E7FA51450F4B4FE0AC024
:100FD000B2FC08C02B2D2E7E05C07A2C2B2D03C011
:100FE0007A2C01C0752C24FF0DC0FE01EA0DF11D05
:100FF0008081803311F4297E09C022FF06C07394DA
:10100000739404C0822F867809F0739423FD13C073
:1010100020FF06C05A2C731418F4530C5718732C65
:10102000731468F4B70180E290E02C870E94B8083E
:1010300073942C85F5CF731410F4371801C0312C3C
:1010400024FF12C0B70180E390E02C870E94B8080B
:101050002C8522FF17C021FF03C088E590E002C065
:1010600088E790E0B7010CC0822F867859F021FD07
:1010700002C080E201C08BE227FD8DE2B70190E063
:101080000E94B808A51438F4B70180E390E00E94EC
:10109000B8085A94F7CFAA94F401EA0DF11D8081A3
:1010A000B70190E00E94B808A110F5CF332009F4F1
:1010B00051CEB70180E290E00E94B8083A94F6CF92
:1010C000F7018681978102C08FEF9FEF2C960FB6B4
:1010D000F894DEBF0FBECDBFDF91CF911F910F916E
:1010E000FF90EF90DF90CF90BF90AF909F908F9048
:1010F0007F906F905F904F903F902F9008950F9347
:101100001F93CF93DF93869F8001879F100D969F3B
:10111000100D1124C8010E94F304EC01009729F07E
:10112000A80160E070E00E94A608CE01DF91CF9197
:101130001F910F910895FC010590615070400110BE
:10114000D8F7809590958E0F9F1F0895DC0101C000
:101150006D9341505040E0F70895FC01615070409C
:1011600001900110D8F7809590958E0F9F1F0895DC
:101170000F931F93CF93DF93182F092FEB018B81D0
:1011800081FD03C08FEF9FEF20C082FF10C04E8112
:101190005F812C813D81421753077CF4E881F981FE
:1011A0009F012F5F3F4F39832883108306C0E88556
:1011B000F985812F0995892B29F72E813F812F5F92
:1011C0003F4F3F832E83812F902FDF91CF911F912F
:1011D0000F910895FA01AA27283051F1203181F1A9
:1011E000E8946F936E7F6E5F7F4F8F4F9F4FAF4F2F
:1011F000B1E03ED0B4E03CD0670F781F891F9A1F42
:10120000A11D680F791F8A1F911DA11D6A0F711DF5
:10121000811D911DA11D20D009F468943F912AE001
:10122000269F11243019305D3193DEF6CF010895E9
:10123000462F4770405D4193B3E00FD0C9F7F6CF1A
:10124000462F4F70405D4A3318F0495D31FD4052E2
:10125000419302D0A9F7EACFB4E0A6959795879578
:1012600077956795BA95C9F7009761057105089557
:101270009B01AC010A2E0694579547953795279503
:10128000BA95C9F7620F731F841F951FA01D08959B
:04129000F894FFCF00
:1012940002100000830120004C6F616465642076B5
:1012A400302E3100424C494E4B2052454400424CB2
:1012B400494E4B2020202000252E397300424C49F2
:1012C4004E4B20475245454E00424C494E4B202040
:1012D4002020202000252E313173002020202020C2
:0812E400202020202020000042
:00000001FF
